:060000000A168A119F2E72
:10000A000234003464008001840A040603190034AF
:10001A0004060828831203132408C03E0A168A110C
:10002A00DF250A128A11831203132408F6007607C1
:10003A00A03E840083130008303E0A168A110E2659
:10004A000A128A1183120313051D2C282D287228DF
:10005A000130A4070318A50A0030A50707302406B3
:10006A002504031D39283A283E280830A400003008
:10007A00A5000A3024062504031D442845284A28D9
:10008A000B30A4000030A5004A282508803AFF005A
:10009A0080307F02031D53280D302402031C56288A
:1000AA0057286B28053083120313A6000030A700D7
:1000BA00C0300A168A11DF250A128A1121300A165F
:1000CA008A1194250A128A116B286B28831203134A
:1000DA000519702871286B287228851C75287628BE
:1000EA00A6282408F6007607A03E84000130831370
:1000FA008007840A0318800A2408F6007607A03EBF
:10010A0084000008F700840A0008F800003078022A
:10011A000A3003197702031C93289428A02824087C
:10012A00F6007607A03E840000308000840A003082
:10013A008000A028A0288518A328A428A028A628DB
:10014A00A628831603132B08F101F1072A08F001E8
:10015A00F0070A30F2000030F3000A168A11B525BA
:10016A000A128A11710883120313C501C5077008A0
:10017A00C401C407831603132D0883120313C30192
:10018A00C307831603132C0883120313C201C20781
:10019A0042084407F6004008A73E84007608831701
:1001AA0080004008183EAA0041080318013E003E9C
:1001BA00AB004008A73E84000008F6007608F0006D
:1001CA002A080A168A113D260A128A11831603136F
:1001DA003108F101F1073008F001F0070A30F200A6
:1001EA000030F3000A168A11B5250A128A1171081D
:1001FA0083120313C901C9077008C801C807831607
:10020A000313330883120313C701C70783160313A3
:10021A00320883120313C601C60746084807F600C8
:10022A004008BE3E84007608831780004008303EAE
:10023A00AA0041080318013E003EAB004008BE3E3A
:10024A0084000008F6007608F0002A080A168A11C7
:10025A003D260A128A11831603133708F101F107A2
:10026A003608F001F0070A30F2000030F3000A16EF
:10027A008A11B5250A128A11710883120313CD0156
:10028A00CD077008CC01CC078316031339088312F3
:10029A000313CB01CB078316031338088312031306
:1002AA00CA01CA074A084C07F6004008D53E84002E
:1002BA007608831780004008483EAA0041080318C0
:1002CA00013E003EAB004008D53E84000008F6001F
:1002DA007608F0002A080A168A113D260A128A119F
:1002EA00080080300A168A11DF250A128A1177302F
:1002FA000A168A1194250A128A11C0300A168A111E
:10030A00DF250A128A112F300A168A1194250A1239
:10031A008A116F2B013083120313BE070318BF0A19
:10032A000030BF073F08C101C1073E08C001C0072E
:10033A0082300A168A11DF250A128A1183120313E0
:10034A003F08FA01FA073E08F901F9070A168A1165
:10035A00DF260A128A11831203133E08D83E84004C
:10036A0083130008013A031DBB29BC298B2A863056
:10037A000A168A11DF250A128A1155300A168A11BD
:10038A0094250A128A11C0300A168A11DF250A1228
:10039A008A1172300A168A1194250A128A11C530F6
:1003AA000A168A11DF250A128A11831203133E08DC
:1003BA00A73E840083170008FB00FC017B08F900B4
:1003CA007C08FA000A168A11DF260A128A11C83036
:1003DA000A168A11DF250A128A11831203133E08AC
:1003EA00BE3E840083170008FB00FC017B08F9006D
:1003FA007C08FA000A168A11DF260A128A11CB3003
:10040A000A168A11DF250A128A11831203133E087B
:10041A00D53E840083170008FB00FC017B08F90025
:10042A007C08FA000A168A11DF260A128A111A3083
:10043A00FD005E30FC008630FB00FB0B222AFC0B21
:10044A00222AFD0B222A6400C0300A168A11DF25EF
:10045A000A128A116D300A168A1194250A128A1113
:10046A00C5300A168A11DF250A128A11831203136C
:10047A003E08903E840083170008FB00FC017B08BD
:10048A00F9007C08FA000A168A11DF260A128A1174
:10049A00C8300A168A11DF250A128A118312031339
:1004AA003E08103E840083170008FB00FC017B080D
:1004BA00F9007C08FA000A168A11DF260A128A1144
:1004CA00CB300A168A11DF250A128A118312031306
:1004DA003E08273E840083170008FB00FC017B08C6
:1004EA00F9007C08FA000A168A11DF260A128A1114
:1004FA001A30FD005E30FC008630FB00FB0B832ABD
:10050A00FC0B832AFD0B832A64005A2B86300A16B9
:10051A008A11DF250A128A1165300A168A11942572
:10052A000A128A11C0300A168A11DF250A128A11A4
:10053A0072300A168A1194250A128A11C5300A16CF
:10054A008A11DF250A128A11831203133E08A73E75
:10055A00840083170008FB00FC017B08F9007C0873
:10056A00FA000A168A11DF260A128A11C8300A16F8
:10057A008A11DF250A128A11831203133E08BE3E2E
:10058A00840083170008FB00FC017B08F9007C0843
:10059A00FA000A168A11DF260A128A11CB300A16C5
:1005AA008A11DF250A128A11831203133E08D53EE7
:1005BA00840083170008FB00FC017B08F9007C0813
:1005CA00FA000A168A11DF260A128A111A30FD0069
:1005DA005E30FC008630FB00FB0BF12AFC0BF12A93
:1005EA00FD0BF12A6400C0300A168A11DF250A12AF
:1005FA008A116D300A168A1194250A128A11C53099
:10060A000A168A11DF250A128A11831203133E0879
:10061A00903E840083170008FB00FC017B08F90068
:10062A007C08FA000A168A11DF260A128A11C830D3
:10063A000A168A11DF250A128A11831203133E0849
:10064A00103E840083170008FB00FC017B08F900B8
:10065A007C08FA000A168A11DF260A128A11CB30A0
:10066A000A168A11DF250A128A11831203133E0819
:10067A00273E840083170008FB00FC017B08F90071
:10068A007C08FA000A168A11DF260A128A111A3021
:10069A00FD005E30FC008630FB00FB0B522BFC0B8E
:1006AA00522BFD0B522B64005A2B831203133F0863
:1006BA00803AFF0080307F02031D652B02303E0224
:1006CA00031C682B692B6F2B83120313BE01BF0116
:1006DA006F2B6F2B83120313051A742B752B8F291B
:1006EA00762B0800831203135D14F82F80300A1644
:1006FA008A11DF250A128A1177300A168A1194257F
:10070A000A128A11C0300A168A11DF250A128A11C2
:10071A003D300A168A1194250A128A110A128A157C
:10072A00CF220A128A11013083120313BE0703185B
:10073A00BF0A0030BF073E08FF3EFB007B08F000FF
:10074A00AA300A168A113D260A128A1182300A161E
:10075A008A11DF250A128A11831203133F08FA014C
:10076A00FA073E08F901F9070A168A11DF260A1262
:10077A008A11CE300A168A11DF250A128A118312CB
:10078A0003133F08FA01FA073E08F901F9070A16A6
:10079A008A11DF260A128A11831203133E08D83EF1
:1007AA00840083130008013A031DDC2BDD2BB42FD0
:1007BA0086300A168A11DF250A128A1155300A165E
:1007CA008A1194250A128A11C0300A168A11DF2565
:1007DA000A128A1172300A168A1194250A128A118B
:1007EA00831203133E08A73E840083170008FB0008
:1007FA00FC017B08B4007C08B5003E08903E8400EA
:10080A000008FB00FC017B08AE007C08AF003E0834
:10081A00BE3E84000008FB00FC017B08B6007C0891
:10082A00B7003E08103E84000008FB00FC017B086C
:10083A00B0007C08B1003E08D53E84000008FB00E9
:10084A00FC017B08B8007C08B9003E08273E8400FA
:10085A000008FB00FC017B08B2007C08B3000A1206
:10086A008A15CF220A128A11831203135D193E2CAC
:10087A003F2C602CDD1500305D190130FB007B0830
:10088A00F000AB300A168A113D260A128A1100308E
:10089A0083120313DD190130FB007B08F000AC3032
:1008AA000A168A113D260A128A110A128A15CF22BD
:1008BA000A128A11602C01308312031322062304C0
:1008CA00031D682C692C402EAD300A128A150020AF
:1008DA000A128A11FB00FC017B0883120313B80079
:1008EA007C08B900AE300A128A1500200A128A1151
:1008FA00FB00FC017B0883120313B6007C08B700D7
:10090A00AF300A128A1500200A128A11FB00FC0174
:10091A007B0883120313B4007C08B500B0300A12B6
:10092A008A1500200A128A11FB00FC017B08831237
:10093A000313B2007C08B300B1300A128A150020F2
:10094A000A128A11FB00FC017B0883120313B00010
:10095A007C08B100B2300A128A1500200A128A11E4
:10096A00FB00FC017B0883120313AE007C08AF0076
:10097A00A201A301402E402E0A128A15CF220A1282
:10098A008A11C5300A168A11DF250A128A118312C2
:10099A0003133508FA01FA073408F901F9070A16A8
:1009AA008A11DF260A128A11C8300A168A11DF252F
:1009BA000A128A11831203133708FA01FA07360852
:1009CA00F901F9070A168A11DF260A128A11CB30B1
:1009DA000A168A11DF250A128A11831203133908AB
:1009EA00FA01FA073808F901F9070A168A11DF2607
:1009FA000A128A11FF3083120313B8070318B90ABF
:100A0A00FF30B9073808FB007B08F000AD300A1642
:100A1A008A113D260A128A11831203133908803A71
:100A2A00FF0080307F02031D1C2D0130380203189D
:100A3A001F2D202D252D83120313B801B901252D51
:100A4A000A168A116E260A128A11831203133908AA
:100A5A003804031D312D322D6F2D37083604031D3E
:100A6A00372D382D6F2D35083404031D3D2D3E2DAD
:100A7A006F2DB601B701B401B501B801B901C03093
:100A8A000A168A11DF250A128A116D300A168A118E
:100A9A0094250A128A1183120313DD115D150030A1
:100AAA005D190130FB007B08F000AB300A168A1191
:100ABA003D260A128A11003083120313DD19013010
:100ACA00FB007B08F000AC300A168A113D260A1298
:100ADA008A11462E8312031339083804031D762D12
:100AEA00772DA02DFF30B6070318B70AFF30B707D6
:100AFA003608FB007B08F000AE300A168A113D2644
:100B0A000A128A113B3083120313B8000030B9006D
:100B1A003708803AFF0080307F02031D962D01308E
:100B2A0036020318992D9A2DA02D83120313B601AC
:100B3A00B701A02DA02D8312031337083604031D15
:100B4A00A72DA82DD32DFF30B4070318B50AFF30FF
:100B5A00B5073408FB007B08F000AF300A168A118B
:100B6A003D260A128A113B3083120313B600003065
:100B7A00B7003508803AFF0080307F02031DC72D79
:100B8A00013034020318CA2DCB2DD32D831203133F
:100B9A00B401B501B601B701D32DD32D01308312AB
:100BAA0003133E063F04031DDB2DDC2DDF2D083029
:100BBA008600DF2D3F08803AFF0080307F02031D48
:100BCA00E82D02303E02031CEB2DEC2D172E83126A
:100BDA0003133F08803AFF0080307F02031DF72D80
:100BEA0011303E020318FA2DFB2D172E8312031320
:100BFA003E083E3E84008317000886008C300A16A1
:100C0A008A11DF250A128A11831203133F08FA0197
:100C1A00FA073E08F901F9070A168A11DF260A12AD
:100C2A008A11402E831203133F08803AFF00803056
:100C3A007F02031D222E11303E02031C252E262E72
:100C4A00402E831203133F08803AFF0080307F0250
:100C5A00031D312E19303E020318342E352E402E34
:100C6A00831203133E083E3E840083170008870060
:100C7A00402E402E402E83120313DD19452E462E98
:100C8A00C12C831203135D1D4B2E4C2E852FDD11B3
:100C9A005D1100305D190130FB007B08F000AB30BC
:100CAA000A168A113D260A128A110030831203138A
:100CBA00DD190130FB007B08F000AC300A168A11FE
:100CCA003D260A128A110A128A15CF220A128A119D
:100CDA00852F852F0A128A15CF220A128A11C5304A
:100CEA000A168A11DF250A128A11831203132F08A2
:100CFA00FA01FA072E08F901F9070A168A11DF26FE
:100D0A000A128A11C8300A168A11DF250A128A11B4
:100D1A00831203133108FA01FA073008F901F907B7
:100D2A000A168A11DF260A128A11CB300A168A118C
:100D3A00DF250A128A11831203133308FA01FA070C
:100D4A003208F901F9070A168A11DF260A128A11EE
:100D5A00FF3083120313B2070318B30AFF30B30735
:100D6A003208FB007B08F000B0300A168A113D26D3
:100D7A000A128A11831203133308803AFF00803063
:100D8A007F02031DCA2E013032020318CD2ECE2E49
:100D9A00D32E83120313B201B301D32E0A168A117A
:100DAA006E260A128A118312031333083204031DB2
:100DBA00DF2EE02E1D2F31083004031DE52EE62E0E
:100DCA001D2F2F082E04031DEB2EEC2E1D2FB00114
:100DDA00B101AE01AF01B201B301C0300A168A11E6
:100DEA00DF250A128A1172300A168A1194250A120C
:100DFA008A1183120313DD155D1100305D1901306C
:100E0A00FB007B08F000AB300A168A113D260A1255
:100E1A008A11003083120313DD190130FB007B08AD
:100E2A00F000AC300A168A113D260A128A118B2F5D
:100E3A008312031333083204031D242F252F4E2F48
:100E4A00FF30B0070318B10AFF30B1073008FB00C2
:100E5A007B08F000B1300A168A113D260A128A115F
:100E6A003B3083120313B2000030B3003108803ADA
:100E7A00FF0080307F02031D442F01303002031827
:100E8A00472F482F4E2F83120313B001B1014E2F63
:100E9A004E2F8312031331083004031D552F562F8A
:100EAA00802FFF30AE070318AF0AFF30AF072E08B6
:100EBA00FB007B08F000B2300A168A113D260A129E
:100ECA008A113B3083120313B0000030B1002F089F
:100EDA00803AFF0080307F02031D752F01302E02F9
:100EEA000318782F792F802F83120313AE01AF01D5
:100EFA00B001B101802F8312031386018701852F68
:100F0A0083120313DD1D8A2F8B2F6F2E8312031377
:100F1A005D19902F912FC12FDD155D1500305D19D8
:100F2A000130FB007B08F000AB300A168A113D261F
:100F3A000A128A11003083120313DD190130FB00F3
:100F4A007B08F000AC300A168A113D260A128A1173
:100F5A000A128A15CF220A128A11C12FC12F86308E
:100F6A000A168A11DF250A128A1165300A168A11B1
:100F7A0094250A128A11C12F0230831203133E06E6
:100F8A003F04031DC92FCA2FF22FBE01BF01013032
:100F9A000A168A11DF250A128A11C0300A168A1126
:100FAA00DF250A128A114B300A168A1194250A1271
:100FBA008A111A30FD005E30FC008630FB00FB0B04
:100FCA00E42FFC0BE42FFD0BE42F640001300A161A
:100FDA008A11DF250A128A11F22F0A128A15CF22E4
:100FEA000A128A11F82F831203135D18FD2FFE2FA0
:100FFA007B2BFF2F0800F1006400831603178C185F
:10100A0007280828012809287108831203178D0068
:10101A003F30F0007008831603178C050C14031078
:10102A000C180314003003180130831203170C083C
:10103A001E28080083120313851C242825287A28D1
:10104A0080300A168A11DF250A128A1577300A16A5
:10105A008A1194250A128A15C0300A168A11DF25C8
:10106A000A128A152F300A168A1194250A128A152D
:10107A00013083120313BA070318BB0A0030BB07F7
:10108A003B08C101C1073A08C001C0073B08803AC2
:10109A00FF0080307F02031D542803303A02031CEC
:1010AA00572858285F28013083120313BA000030EA
:1010BA00BB005F2882300A168A11DF250A128A15B8
:1010CA00831203133B08FA01FA073A08F901F907F0
:1010DA000A168A11DF260A128A1573288312031345
:1010EA0085187828792873287A28051D7D287E286E
:1010FA00B1285E08043EDE005F080318013E003E88
:10110A00DF0086300A168A11DF250A128A155D3039
:10111A000A168A1194250A128A15831203135F0884
:10112A00803AFF0080307F02031D9D2807305E024F
:10113A00031CA028A128A928053083120313A400A0
:10114A000030A500A928A928831203130519AE287F
:10115A00AF28A928B128B12806305E065F04031D0E
:10116A00B728B82873296A296A29851CBD28BE2888
:10117A0034290130A8070318A90A0030A907013049
:10118A0028062904031DCA28CB28EC2886300A160B
:10119A008A11DF250A128A1565300A168A119425E2
:1011AA000A128A15831203133A08D83E840083135D
:1011BA0080013A08D83E84000008FB007B08F00052
:1011CA003A080A168A113D260A128A15EC280230B4
:1011DA008312031328062904031DF428F528182965
:1011EA0086300A168A11DF250A128A1555300A1620
:1011FA008A1194250A128A15831203133A08D83ED3
:10120A008400831380010314800D3A08D83E8400B9
:10121A000008FB007B08F0003A080A168A113D26EE
:10122A000A128A151829831203132908803AFF0023
:10123A0080307F02031D232902302802031C26293D
:10124A0027292D2983120313A801A9012D292D2944
:10125A00831203138518322933292D293429051DB0
:10126A00372938296A295E08063EDE005F08031816
:10127A00013E003EDF005F08803AFF0080307F02B7
:10128A00031D492907305E02031C4C294D29612997
:10129A00053083120313A4000030A500C0300A16DB
:1012AA008A11DF250A128A152F300A168A11942507
:1012BA000A128A15612961298312031305196629FD
:1012CA00672961296A296A296A2906305E065F0444
:1012DA00031970297129BA287329732908008312FE
:1012EA0003132608C03E0A168A11DF250A128A1538
:1012FA00831203132608F6007607BC3E8400831384
:10130A000008303E0A168A110E260A128A1583121E
:10131A000313051D91299229CB290130A607031829
:10132A00A70A0030A707073026062704031D9E29AF
:10133A009F29A3290830A6000030A7000A302606F4
:10134A002704031DA929AA29AF290B30A6000030BA
:10135A00A700AF292708803AFF0080307F02031DCB
:10136A00B8290D302602031CBB29BC29C429023026
:10137A0083120313DE000030DF00C429C42983125C
:10138A0003130519C929CA29C429CB29851CCE29C1
:10139A00CF29FF292608F6007607BC3E84000130D3
:1013AA0083138007840A0318800A2608F600760742
:1013BA00BC3E84000008F700840A0008F8000030E8
:1013CA0078020A3003197702031CEC29ED29F9295E
:1013DA002608F6007607BC3E840000308000840AA6
:1013EA0000308000F929F9298518FC29FD29F929F5
:1013FA00FF29FF29831603134708F101F10746085D
:10140A00F001F0070A30F2000030F3000A168A11E0
:10141A00B5250A128A15710883120313C501C50777
:10142A007008C401C40783160313490883120313FF
:10143A00C301C30783160313480883120313C201A7
:10144A00C20742084407F6004008903E8400760826
:10145A00831780004008603EAA0041080318013E35
:10146A00003EAB004008903E84000008F600760873
:10147A00F0002A080A168A113D260A128A158316CE
:10148A0003134D08F101F1074C08F001F0070A3087
:10149A00F2000030F3000A168A11B5250A128A15DD
:1014AA00710883120313C901C9077008C801C80764
:1014BA00831603134F0883120313C701C707831642
:1014CA0003134E0883120313C601C60746084807CA
:1014DA00F6004008103E8400760883178000400812
:1014EA00783EAA0041080318013E003EAB004008BE
:1014FA00103E84000008F6007608F0002A080A1652
:10150A008A113D260A128A15831603135308F1011C
:10151A00F1075208F001F0070A30F2000030F30038
:10152A000A168A11B5250A128A157108831203133D
:10153A00CD01CD077008CC01CC07831603135508DB
:10154A0083120313CB01CB078316031354088312A8
:10155A000313CA01CA074A084C07F6004008273E87
:10156A0084007608831780004008903EAA0041084C
:10157A000318013E003EAB004008273E84000008E5
:10158A00F6007608F0002A080A168A113D260A1281
:10159A008A150800D12AD12A0530831203139F0025
:1015AA00013A0319D92ADA2AD12ADB2A1E08F300BA
:1015BA00F4017308F400F301831603131E0873077A
:1015CA0083120313A0000030031801307407A1002E
:1015DA002108803AFF0083307F02031DF62A8430F7
:1015EA0020020318F92AFA2A6A2C1030F300F30BA6
:1015FA00FC2A6400831203133E08FF3EF3007308BB
:10160A00F000AA300A168A113D260A128A151030ED
:10161A00F300F30B0E2B64000030831203135D19E1
:10162A000130F3007308F000AB300A168A113D2628
:10163A000A128A151030F300F30B212B64000030D4
:10164A0083120313DD190130F3007308F000AC3084
:10165A000A168A113D260A128A151030F300F30B76
:10166A00342B6400831203133808F3007308F00064
:10167A00AD300A168A113D260A128A151030F30077
:10168A00F30B452B6400831203133608F300730827
:10169A00F000AE300A168A113D260A128A15103059
:1016AA00F300F30B562B6400831203133408F30080
:1016BA007308F000AF300A168A113D260A128A15FD
:1016CA001030F300F30B672B640083120313320804
:1016DA00F3007308F000B0300A168A113D260A1288
:1016EA008A151030F300F30B782B6400831203136E
:1016FA003008F3007308F000B1300A168A113D264B
:10170A000A128A151030F300F30B892B6400831236
:10171A0003132E08F3007308F000B2300A168A1178
:10172A003D260A128A151030F300F30B9A2B640037
:10173A00A9300A128A1500200A128A15F3008312A8
:10174A0003135D10731CAA2B5D14AA300A128A15A2
:10175A0000200A128A15F300F40173088312031396
:10176A00BE007408BF00AB300A128A1500200A12A4
:10177A008A15F300831203135D11731CC52B5D15C3
:10178A00AC300A128A1500200A128A15F300831255
:10179A000313DD11731CD22BDD15AD300A128A1525
:1017AA0000200A128A15F300F40173088312031346
:1017BA00B8007408B900AE300A128A1500200A125D
:1017CA008A15F300F401730883120313B600740830
:1017DA00B700AF300A128A1500200A128A15F300E0
:1017EA00F401730883120313B4007408B500B0300F
:1017FA000A128A1500200A128A15F300F4017308E6
:10180A0083120313B2007408B300B1300A128A15A6
:10181A0000200A128A15F300F401730883120313D5
:10182A00B0007408B100B2300A128A1500200A12F8
:10183A008A15F300F401730883120313AE007408C7
:10184A00AF0039083804031D2B2C2C2C4B2C3708DD
:10185A003604031D312C322C4B2C35083404031D5D
:10186A00372C382C4B2C33083204031D3D2C3E2CCC
:10187A004B2C31083004031D432C442C4B2C2F08CD
:10188A002E040319492C4A2C5A2C4B2C0130A20045
:10189A000030A3002208F3007308F000B3300A16E0
:1018AA008A113D260A128A156A2C83120313A20191
:1018BA00A3012208F3007308F000B3300A168A1154
:1018CA003D260A128A156A2C6A2C08003F308316B4
:1018DA000313850083120313850101309F00CE3064
:1018EA00831603139F00860183120313860183164E
:1018FA0003138701831203138701831603138801D5
:10190A0083120313880183160313890183120313B5
:10191A0089010A168A1157250A128A158312031396
:10192A00DB01DC015C08803AFF0080307F02031D86
:10193A00A02C0F305B02031CA32CA42CA62CD12CA8
:10194A00D12C831203135B08D4005407A03E8400F1
:10195A00003083138000840A003080005B08D400C2
:10196A005407BC3E840000308000840A00308000A6
:10197A000130DB070318DC0A0030DC075C08803A18
:10198A00FF0080307F02031DCC2C0F305B02031C4A
:10199A00CF2CD02CA62CD12C80300A168A11DF2508
:1019AA000A128A1512300A168A1194250A128A1501
:1019BA001A3083120313D6005E30D5008630D40065
:1019CA00D40BE52CD50BE52CD60BE52C6400803026
:1019DA000A168A11DF250A128A1501300A168A1197
:1019EA0094250A128A15372D83120313D701D801B9
:1019FA005808803AFF0081307F02031D062D00300F
:101A0A005702031C092D0A2D0C2D2B2D2B2DF0010D
:101A1A008312031357080A168A113D260A128A15D9
:101A2A00013083120313D7070318D80A0030D807E6
:101A3A005808803AFF0081307F02031D262D0030AE
:101A4A005702031C292D2A2D0C2D2B2D0130831210
:101A5A000313BC000030BD00322D0519352D362D7B
:101A6A00322D372D8312031305193C2D3D2DF92CE8
:101A7A003F2D3F2D02305E065F04031D452D462D86
:101A8A004A2DDD145D12DD124A2D05302406250487
:101A9A00031D502D512D552DDD105D16DD12552DCE
:101AAA00053026062704031D5B2D5C2D5F2DDD10F6
:101ABA005D12DD16DD1C622D632D692D0A128A1551
:101ACA001F200A128A15692D831203135D1E6E2DBB
:101ADA006F2D752D0A128A110F200A128A15752D7B
:101AEA0083120313DD1E7A2D7B2D8C2D0A128A1583
:101AFA0074210A128A158C2D8C2D83120313BC01B2
:101B0A00BD01872D85198A2D8B2D872D8C2D83124A
:101B1A0003138519912D922D822D932D01303C06A8
:101B2A003D040319992D9A2D3F2D9B2D00300A1241
:101B3A008A1500200A128A15FF3A031DA52DA62D23
:101B4A00D92D83120313D901DA015A08803AFF000A
:101B5A0081307F02031DB32D00305902031CB62DBC
:101B6A00B72DB92DD92DD92DF00183120313590898
:101B7A000A168A113D260A128A15013083120313A6
:101B8A00D9070318DA0A0030DA075A08803AFF0040
:101B9A0081307F02031DD32D00305902031CD62D3C
:101BAA00D72DB92DD92DD92D013083120313AA00AF
:101BBA000030AB002B08803AFF0080307F02031D03
:101BCA00E82D19302A02031CEB2DEC2DEE2D132ED5
:101BDA00132E831203132A080A128A1500200A12E6
:101BEA008A1583120313D4002A08D83E84005408A5
:101BFA00831380000130AA070318AB0A0030AB0731
:101C0A002B08803AFF0080307F02031D0E2E193008
:101C1A002A02031C112E122EEE2D132E83120313E9
:101C2A00C001C1011930AA000030AB002B08803A6C
:101C3A00FF0080307F02031D242E31302A02031C4C
:101C4A00272E282E2A2E552E552E013083120313A5
:101C5A00C0070318C10A0030C1072A080A128A15E8
:101C6A0000200A128A1583120313D4004008A73EE3
:101C7A0084005408831780000130AA070318AB0AAE
:101C8A000030AB072B08803AFF0080307F02031D2B
:101C9A00502E31302A02031C532E542E2A2E552E32
:101CAA0083120313C001C1013130AA000030AB0016
:101CBA002B08803AFF0080307F02031D662E4930D0
:101CCA002A02031C692E6A2E6C2E972E972E01303B
:101CDA0083120313C0070318C10A0030C1072A0878
:101CEA000A128A1500200A128A1583120313D400D5
:101CFA004008BE3E84005408831780000130AA07BA
:101D0A000318AB0A0030AB072B08803AFF0080307B
:101D1A007F02031D922E49302A02031C952E962E0D
:101D2A006C2E972E83120313C001C1014930AA00F9
:101D3A000030AB002B08803AFF0080307F02031D81
:101D4A00A82E61302A02031CAB2EAC2EAE2ED92E41
:101D5A00D92E013083120313C0070318C10A0030B9
:101D6A00C1072A080A128A1500200A128A15831244
:101D7A000313D4004008D53E84005408831780001A
:101D8A000130AA070318AB0A0030AB072B08803AC8
:101D9A00FF0080307F02031DD42E61302A02031C0B
:101DAA00D72ED82EAE2ED92E83120313C001C1010D
:101DBA006130AA000030AB002B08803AFF00803067
:101DCA007F02031DEA2E79302A02031CED2EEE2E25
:101DDA00F02E1B2F1B2F013083120313C007031889
:101DEA00C10A0030C1072A080A128A1500200A12FD
:101DFA008A1583120313D4004008903E84005408C5
:101E0A00831780000130AA070318AB0A0030AB071A
:101E1A002B08803AFF0080307F02031D162F79308D
:101E2A002A02031C192F1A2FF02E1B2F83120313B9
:101E3A00C001C1017930AA000030AB002B08803AFA
:101E4A00FF0080307F02031D2C2F91302A02031CD1
:101E5A002F2F302F322F5D2F5D2F01308312031366
:101E6A00C0070318C10A0030C1072A080A128A15D6
:101E7A0000200A128A1583120313D4004008103E68
:101E8A0084005408831780000130AA070318AB0A9C
:101E9A000030AB072B08803AFF0080307F02031D19
:101EAA00582F91302A02031C5B2F5C2F322F5D2F93
:101EBA0083120313C001C1019130AA000030AB00A4
:101ECA002B08803AFF0080307F02031D6E2FA93055
:101EDA002A02031C712F722F742F9F2F9F2F0130FC
:101EEA0083120313C0070318C10A0030C1072A0866
:101EFA000A128A1500200A128A1583120313D400C3
:101F0A004008273E84005408831780000130AA073E
:101F1A000318AB0A0030AB072B08803AFF00803069
:101F2A007F02031D9A2FA9302A02031C9D2F9E2F80
:101F3A00742F9F2F83120313C001C101A9300A1203
:101F4A008A1500200A128A1583120313D4005D1021
:101F5A00541CB02F5D14AA300A128A1500200A12E6
:101F6A008A1583120313D400D5015408BE005508FC
:101F7A00BF00AB300A128A1500200A128A15831292
:101F8A000313D4005D11541CCB2F5D15AC300A121B
:101F9A008A1500200A128A1583120313D400DD1150
:101FAA00541CD82FDD15D92F0A128A1176210A124C
:101FBA008A1583120313051AE32FE42FD92FE52F6D
:101FCA0001300A168A11DF250A128A15EC2F0A1225
:101FDA008A1177230A128A150A128A15CF220A123F
:101FEA008A150A168A116E260A128A15EC2FEC2F08
:101FFA000A128A11002810308A000408840A82070B
:10200A000034203420342034203420342034203446
:10201A002034203420342034203420342034203416
:10202A00203400344B344134503420344134553454
:10203A0054344F344D344134543449344F344E348B
:10204A0000344F344634203454343A342034203463
:10205A003A34203420343A342034203400344F3493
:10206A004E34203454343A34203420343A34203430
:10207A0020343A342034203400344F344E3420345F
:10208A0054343A34303430343A34303430343A34E4
:10209A0030343034003443344F344D3450344C34BB
:1020AA004534543445344434003445346E34613450
:1020BA0062346C3465342034003445346E342F3441
:1020CA004434693473342034003444346934733406
:1020DA00613462346C34653400344F34463420340D
:1020EA00543400344F344E3420345434003452348F
:0420FA003A34003440
:102AAE0002300A168A11DF250A168A1128300A16F4
:102ABE008A11DF250A168A110E300A168A11DF25B1
:102ACE000A168A1108007E088A007F0882000A16FC
:102ADE008A116A250A168A118000840A04087D0666
:102AEE0003190034FF0A0319FE0A6E2D0034083450
:102AFE0009340A340B340C340D340E340F34803454
:102B0E009034A034B034C034D034E034F0340834CF
:102B1E0009340A340B340C340D34F400A72D740828
:102B2E0084000A168A1100200A168A110A168A11C2
:102B3E000E260A168A110130F3007308F407A72D2A
:102B4E00740884000A168A1100200A168A110038A9
:102B5E00031DB22DB32D962DB42D0800F401F501F1
:102B6E00B82D701CBB2DBC2DC22D7208F407031896
:102B7E00F50A7308F50701300310F20DF30DFF3E51
:102B8E00031DC32D01300310F10CF00CFF3E031D8D
:102B9E00CA2D71087004031DD52DD62DB82DD72D35
:102BAE007508F101F1077408F001F007DE2D080039
:102BBE00F2007208F0398312031388000811881589
:102BCE002130F1007630F000F00BEB2DF10BEB2DF8
:102BDE0064008312031388117208F000033003108F
:102BEE00F00DFF3E031DF62D0310700DF039880019
:102BFE00081188152130F1007630F000F00B052E0B
:102C0E00F10B052E64008312031388110800F200E5
:102C1E007208F039831203138800081588152130C5
:102C2E00F1007630F000F00B1A2EF10B1A2E640024
:102C3E008312031388117208F00003300310F00D95
:102C4E00FF3E031D252E0310700DF0398800081568
:102C5E0088152130F1007630F000F00B342EF10B98
:102C6E00342E64008312031388110800F2003F2EE5
:102C7E00831603178C18442E452E3F2E462E7208AF
:102C8E00831203178D0070088C003F30F10071081D
:102C9E00831603178C058312031303108B1F582EF4
:102CAE00592E5A2E03148B13831603170C155530F9
:102CBE008D00AA308D008C140C1183120313031C8B
:102CCE00692E6A2E6D2E8B176D2E6D2E0800972E87
:102CDE00013083120313AC070318AD0A0030AD07A1
:102CEE00782E851A7B2E7C2E782E8F2E8F2E860197
:102CFE008701892EAC01AD01842E851A872E882E70
:102D0E00842E892E851A8C2E8D2E812E8F2E8F2E0F
:102D1E0001302C062D040319952E962E7E2E972EFD
:102D2E0083120313851A9C2E9D2E6F2E9E2E080045
:102D3E00DD018313203084004E300A128A110720E1
:102D4E000A168A11A0308400EF300A128A11072069
:102D5E000A168A11831790308400EC300A128A11F9
:102D6E0007200A168A11103084003E300A128A118A
:102D7E0007200A168A115530FD001530FE007D30F1
:102D8E00FF003E3084000A168A116E250A168A113B
:102D9E000A128A1105200A168A11DE000A128A11F9
:102DAE0006200A168A11DF0083010A128A156B2C7F
:102DBE007A0883120313D301D3077908D201D207FD
:102DCE000A30F0000030F1005308F301F307520807
:102DDE00F201F2070A168A118C270A168A11710857
:102DEE0083120313CF01CF077008CE01CE074E0812
:102DFE00303E0A168A110E260A168A110A30F00083
:102E0E000030F100831203135308F301F307520845
:102E1E00F201F2070A168A1126270A168A1171087C
:102E2E0083120313D101D1077008D001D0075008C7
:102E3E00303E0A168A110E260A168A110800F6016D
:102E4E00F31F2A2F2B2F342FF209F309F20A03193D
:102E5E00F30AF6010314F60D342FF11F372F382F16
:102E6E003E2FF009F109F00A0319F10A3E2F7108FD
:102E7E0070040319432F442F7A2FF5010314F50D17
:102E8E00542F01300310F00DF10DFF3E031D492F9D
:102E9E000130F4007408F507542FF11F572F582FE7
:102EAE00482F5A2F5A2F71087302031D602F700876
:102EBE007202031C632F642F6B2F7008F2027108CD
:102ECE00031CF303F3026B2F01300310F10CF00C13
:102EDE00FF3E031D6C2F0130F502031D772F782F57
:102EEE005A2F7A2F7A2F7608031D7E2F842FF20900
:102EFE00F309F20A0319F30A842F7308F101F1079B
:102F0E007208F001F0078B2F0800F601F11F902FC9
:102F1E00912F9A2FF009F109F00A0319F10AF6011F
:102F2E000314F60D9A2FF31F9D2F9E2FA82FF20933
:102F3E00F309F20A0319F30A0130F4007408F606D5
:102F4E00A82FF701F801710870040319AF2FB02FE5
:102F5E00EE2FF5010314F50DC02F01300310F00D07
:102F6E00F10DFF3E031DB52F0130F4007408F50777
:102F7E00C02FF11FC32FC42FB42FC62FC62F013061
:102F8E000310F70DF80DFF3E031DC72F71087302D6
:102F9E00031DD32F70087202031CD62FD72FDF2FDD
:102FAE007008F2027108031CF303F3027714DF2F8B
:102FBE0001300310F10CF00CFF3E031DE02F013029
:102FCE00F502031DEB2FEC2FC62FEE2FEE2F7608FA
:102FDE00031DF22FF82FF709F809F70A0319F80A5B
:102FEE00F82F7808F101F1077708F001F007FF2FAD
:022FFE000800C9
:02400E003A3F37
:00000001FF
